:020000040C00EE
:100000000088FE1F010200089902000899020008FA
:1000100099020008990200089902000800000000F7
:10002000000000000000000000000000990200082D
:1000300099020008000000009902000855230008FA
:100040009902000899020008990200089902000824
:100050009902000899020008990200089902000814
:1000600099020008000000000000000000000000ED
:100070009902000800000000990200089902000897
:1000800099020008990200089902000899020008E4
:1000900099020008990200089902000899020008D4
:1000A00099020008990200089902000899020008C4
:1000B00099020008990200089902000899020008B4
:1000C00099020008990200089902000899020008A4
:1000D0009902000899020008990200089902000894
:1000E0009902000899020008990200089902000884
:1000F0009902000899020008990200089902000874
:100100009902000899020008990200089902000863
:100110009902000899020008990200089902000853
:100120009902000899020008990200089902000843
:100130009902000899020008990200089902000833
:100140009902000899020008990200089902000823
:100150009902000899020008990200089902000813
:10016000000000000000000000000000000000008F
:1001700099020008990200089902000899020008F3
:1001800099020008990200089902000899020008E3
:10019000990200089902000899020008CD1E000883
:1001A00099020008DD1E00083134000821340008DF
:1001B00099020008990200089902000899020008B3
:1001C00099020008990200089902000899020008A3
:1001D0009902000899020008990200080000000036
:1001E0009902000899020008990200089902000883
:1001F00099020008000000009902000800000000B9
:10020000DFF874D01D4880471D4C1E4DAC4209DA02
:1002100021686268A368043BA2BFC858D050FAE7BF
:100220000C34F3E7184B194CA34208DA19685A68E2
:100230000020043AA4BF8850FBE70833F4E71448D1
:1002400080471448804700005038000C0088FE1F8B
:10025000440000005038000C0088FE1F0000000021
:100260004488FE1F5801000000000020000000002C
:1002700000000020000000000088FE1F9D02000812
:1002800048020008600200086002000878020008C6
:100290004537000811370008FEE7000098B500AFA9
:1002A000054A4FF0005314460FCB84E80F0003F0CB
:1002B000EBF803F053F998BDC4FF032080B584B078
:1002C00000AF2F4BDB6803F48033002B3ED02D4B67
:1002D000DB6803F00103002B02D02B4BFB6002E034
:1002E00003F032F9F860274B1B6803F00403002B7E
:1002F00020D0244B9B6803F070631B0E0133BB605E
:10030000204B9B6803F4FE431B0A01337B601D4BAB
:100310009B6803F4FE031B0C01333B60BB683A6827
:1003200002FB03F3FA68B2FBF3F37A6802FB03F310
:10033000FB600DE0134B9B6803F07F0301333B60D0
:10034000FA683B68B2FBF3F3FB6001E00E4BFB6025
:100350000B4BDB68DBB20133FA68B2FBF3F3FB60F3
:10036000074B1B6903F001030133FA68B2FBF3F397
:10037000FB60064AFB6813601037BD4680BD00BFB6
:10038000004600501047005000366E01C0FF0320A9
:1003900080B485B000AFF8600B467A60FB72FB7AE0
:1003A0009B08DBB21846FB7A9B08DBB21A46FB6857
:1003B000043253F82220FB7A03F00303DB001946D2
:1003C000F8238B40DB4302EA0301FB68021D43F87C
:1003D0002210FB685A6FFB7A5B00194603238B409F
:1003E000DB431A40FB685A67FB683A4A934203D0E2
:1003F000FB68394A93420AD1FB681A6EFB7A0121E5
:1004000001FA03F3DB431A40FB681A6642E07B689B
:100410001B78DBB25BB2002B3CDA7B685A68FB7A54
:100420009A40FB685A60FB7ADB08DBB21846FB7A1D
:10043000DB08DBB21A46FB68103253F82220FB7A45
:1004400003F007039B00194607238B40DB4302EAB6
:100450000301FB6800F1100243F82210FB7ADB086D
:10046000DBB21846FB7ADB08DBB21A46FB681032B7
:1004700053F822207B681B7A1946FB7A03F00703A6
:100480009B0001FA03F342EA0301FB6800F110024A
:1004900043F82210FB7A9B08DBB21846FB7A9B08D4
:1004A000DBB21A46FB68043253F822207B681B78C3
:1004B0001946FB7A03F00303DB0001FA03F342EA77
:1004C0000301FB68021D43F822101437BD465DF896
:1004D000047B7047008E0248008F024880B400AF52
:1004E000034B1B681846BD465DF8047B704700BF90
:1004F000C0FF032080B400AF034BD3F8C4301846CC
:10050000BD465DF8047B70470040005080B584B064
:1005100000AF7860FFF7D2FE0B4B1B680B4AA2FBC3
:1005200003239A0C7B6802FB03F37B600023FB60D0
:1005300003E000BFFB680133FB60FA687B689A4206
:10054000F7D31037BD4680BDC0FF032083DE1B43B9
:1005500080B400AF034B5B681846BD465DF8047B72
:10056000704700BF7440005080B483B000AF786023
:10057000034A7B68D3600C37BD465DF8047B704747
:1005800074400050B0B584B002AF7860002000F035
:10059000C5F800F0B7FA7B68DB79002B0AD000F0D1
:1005A000EFFA00BF00F0DAFA034683F00103DBB292
:1005B000002BF7D17B685B7A184600F029F900BF61
:1005C000FFF798FF0346002BFAD17B681B7A184689
:1005D00000F072FA7B681B7C184600F037F97B68E4
:1005E0005B7C184600F05AF97B689B7C184600F04B
:1005F00041F97B68DB7C184600F064F97B689B79E5
:10060000002B0AD000F0F4FA00BF00F019FB0346FB
:1006100083F00103DBB2002BF7D17B68DB78002B82
:1006200009D17B689B7983F00103DBB2002B17D0E3
:1006300000F02AFB14E000F017FB7B6899887B68C8
:10064000DA787B685B781D467B681B781C467B6884
:100650009B780093084611462A46234600F024FB67
:100660007B68DB68B3F5803F03D14FF4803000F046
:1006700055F8FFF723FE0837BD46B0BD80B485B0FE
:1006800000AF78607B681B0FFB607B6823F07043D2
:10069000BB60FA6813465B0013449B001A46044B88
:1006A0001344BA681A601437BD465DF8047B70477E
:1006B0001444005080B485B000AF78607B681B0F95
:1006C000FB607B6823F07043BB60FA6813465B00F5
:1006D00013449B001A46084B13441A68BB68134026
:1006E000002B14BF01230023DBB218461437BD468C
:1006F0005DF8047B704700BF0C44005080B500AF2C
:10070000FFF7ECFE0246044B5B6903F0010322FA9B
:1007100003F3184680BD00BF0046005080B483B08C
:1007200000AF78600649064BDB6823F480327B68B3
:100730001343CB600C37BD465DF8047B704700BFA8
:100740000046005080B483B000AF78600649064B85
:100750009B6923F480327B6813438B610C37BD4661
:100760005DF8047B704700BF0046005080B483B042
:1007700000AF78600649064B5B6A23F440327B6821
:1007800013434B620C37BD465DF8047B704700BFD6
:100790000046005080B483B000AF0346FB80FB8866
:1007A000002B08D10A4A0A4BDB6823F4807323F03C
:1007B0000103D36007E0064A054BDB6843F480730E
:1007C00043F00103D3600C37BD465DF8047B7047EE
:1007D0001047005080B483B000AF0346FB7100BFE8
:1007E000094BD3F8C43003F00803002BF8D10749B4
:1007F000064BDB6823F04002FB791343CB600C37D8
:10080000BD465DF8047B7047004000500043005037
:1008100080B483B000AF0346FB7100BF094BD3F82F
:10082000C43003F00803002BF8D10749064BDB68FE
:1008300023F08002FB791343CB600C37BD465DF893
:10084000047B7047004000500043005080B483B0E8
:1008500000AF78600649064BDB6823F0FF027B6837
:10086000013B1343CB600C37BD465DF8047B7047FA
:100870000046005080B483B000AF78600649064B54
:100880001B6A23F001027B68013B13430B620C37A8
:10089000BD465DF8047B70470046005080B483B0CD
:1008A00000AF78600649064B1B6923F001027B68A4
:1008B000013B13430B610C37BD465DF8047B704769
:1008C0000046005080B483B000AF78600649064B04
:1008D0005B6923F001027B68013B13434B610C37DA
:1008E000BD465DF8047B70470046005080B483B07D
:1008F00000AF78600649064B9B6923F007027B68CE
:10090000013B13438B610C37BD465DF8047B704798
:100910000046005080B483B000AF78600649064BB3
:10092000DB6923F03F027B68013B1343CB610C374B
:10093000BD465DF8047B70470046005080B483B02C
:1009400000AF78600649064B5B6A23F0FF027B68C4
:10095000013B13434B620C37BD465DF8047B704787
:100960000046005080B485B000AF78607B681B0FF4
:10097000FB607B6823F07043BB60FA6813465B0042
:1009800013449B001A46044B1344BA681A60143788
:10099000BD465DF8047B70474846005080B485B082
:1009A00000AF78607B681B0FFB607B6823F07043AF
:1009B000BB60FA6813465B0013449B001A46084B61
:1009C00013441A68BB681340002B14BF0123002393
:1009D000DBB218461437BD465DF8047B704700BF94
:1009E0004046005080B400AF054A054B5B6923F4D4
:1009F000803323F002035361BD465DF8047B7047EA
:100A00001047005080B483B000AF78603960284A46
:100A1000274B5B6943F00103536100BF244B1B6903
:100A200003F00103002BF9D0214A214B5B6943F00D
:100A3000100353611E493B68013B1A027B68013B6E
:100A40001B0613434B611A4A194B5B6943F0400381
:100A50005361174A164B5B6923F010035361144A24
:100A6000134B5B6943F48023536100BF104B1B6938
:100A700003F00403002BF9D00D4A0D4B5B6923F002
:100A80000103536100BF0A4B1B6903F00103002BF4
:100A9000F9D1074A064B5B6923F040035361054BCC
:100AA0000822DA600C37BD465DF8047B704700BF52
:100AB000104700506041005080B582B000AF03463F
:100AC000FB710F4A0E4B5B6843F480135360FB7954
:100AD000012B0ED10A4A0A4B5B6823F48013536042
:100AE0006420FFF713FD064A054B5B6843F40023BF
:100AF00053606420FFF70AFD0837BD4680BD00BF84
:100B00001047005080B400AF124B1B6803F0010384
:100B1000002B09D10F4B01225A6000BF0D4B1B68FF
:100B200003F00103002BF9D00B4B1B6803F4007397
:100B3000002B0AD0084B4FF400729A6000BF064B9E
:100B40001B6803F40073002BF9D1BD465DF8047BEC
:100B5000704700BF004200500044005080B400AF16
:100B6000064B1B6803F00803002B0CBF0123002376
:100B7000DBB21846BD465DF8047B70470043005069
:100B800080B500AF4FF40000FFF7EEFC174A174B9B
:100B9000DB6923F03003D36100BFFFF7D9FC0346C4
:100BA00003F40003002BF8D04FF40030FFF7DCFC17
:100BB0000E4B08225A6000BFFFF7CAFC034603F43D
:100BC0000033002BF8D04FF40020FFF7CDFC074A8C
:100BD000064BDB6843F00803D36000BFFFF7B8FCA7
:100BE000034603F40023002BF8D080BD00430050DF
:100BF000B0B500AF0F4A0F4B5B6823F480335360EE
:100C00000D4D0D4B5B6823F4702424F0300402F08A
:100C10009BFC0246094BA3FB02231B0D013B1B045B
:100C200023436B60034A034B5B6823F40033536038
:100C3000B0BD00BF10470050004700506BCA5F6B4B
:100C400080B400AF074B1B6803F46073B3F5607F9B
:100C50000CBF01230023DBB21846BD465DF8047BC0
:100C6000704700BF1047005080B400AF054A054BE5
:100C70005B6823F4803323F002035360BD465DF8C4
:100C8000047B70471047005080B400AF054A054B05
:100C90005B6843F4803343F002035360BD465DF864
:100CA000047B70471047005080B586B000AFBA6033
:100CB0007B600346FB810B467B73FB891846FFF77D
:100CC00069FD7B7B012B40F08B80FB89002B09D1D8
:100CD00002F03AFC0246544BA3FB02239B0C9B05FB
:100CE0007B6102E04FF0C0637B617B697A6802FB45
:100CF00003F2BB68B2FBF3F37B617B694B4AA2FB57
:100D000003231B099B0D3B61494A494B5B6843F038
:100D10000103536000BF464B1B6803F00103002B27
:100D2000F9D0434A424B5B6843F01003536040499B
:100D30003F4B9A683F4B13407A68013A12021A43BC
:100D40003B69013B1B041A43BB68013B1B06134371
:100D50008B60374A364B5B6843F040035360344A3C
:100D6000334B5B6823F010035360314A304B5B68B0
:100D700043F48023536000BF2D4B1B6803F0040332
:100D8000002BF9D02A4A2A4B5B6823F001035360F9
:100D900000BF274B1B6803F00103002BF9D17B69CF
:100DA000254AA2FB03235B099B0D3B613A6A3B6921
:100DB0009A4202D2386900F045F87B695B081F4A05
:100DC000A2FB03235B099B0D3B613A6A3B699A4294
:100DD00002D2386900F036F8386A00F033F81CE0C7
:100DE0001349134B9B6823F07F023B6A013B13437B
:100DF0008B6000BF0E4B1B6803F01003002BF9D073
:100E00000B4A0B4B5B6843F00103536000BF084B78
:100E10001B6803F00103002BF9D0094B0522DA60AF
:100E20001837BD4680BD00BF83DE1B43ABAAAAAA0C
:100E300010470050FF8080F089888888B7600BB623
:100E40006041005080B582B000AF78600B490B4B19
:100E50009B6823F4FE027B68013B1B0413438B60F9
:100E600000BF064B1B6803F02003002BF9D0322093
:100E7000FFF74CFB0837BD4680BD00BF1047005050
:100E800080B483B000AF78600B46FB701346BB7034
:100E9000FB789B08DBB21846FB789B08DBB21A464E
:100EA0007B68043253F82220FB7803F00303DB0055
:100EB0001946F8238B40DB4302EA03017B68021DDD
:100EC00043F82210FB789B08DBB21846FB789B089E
:100ED000DBB21A467B68043253F82220BB78F978DB
:100EE00001F00301C9008B4042EA03017B68021D47
:100EF00043F822100C37BD465DF8047B704700BFF5
:100F000080B483B000AF78607B689B6BDBB223F06A
:100F10007F03DBB218460C37BD465DF8047B704793
:100F200080B483B000AF786039607B68DA6C3B686E
:100F30001A437B68DA640C37BD465DF8047B704762
:100F400080B584B000AFF860B9601346FB71F868F3
:100F500000F052FAFB68114A5A63BB68DB88F868F4
:100F6000194600F01DF8FB79002B08D0BB681A6801
:100F7000BB681B79F86811461A4600F03BF8FB681D
:100F80004FF4A0629A63FB684FF0FF32DA64FB68AB
:100F900000221A641037BD4680BD00BF03033F071F
:100FA00080B483B000AF78600B467B807B8803F40D
:100FB000F843B3F5F04F0ED17B68DB6B1B0C1B04C1
:100FC0007A88D2B21A437B885B0003F47E431A43CB
:100FD0007B68DA6308E07B68DB6B1B0C1B047A8898
:100FE00012021A437B68DA630C37BD465DF8047B56
:100FF000704700BF80B586B000AFF860B960134697
:10100000FB71BB68204A934219D8FB68DB6B23F461
:101010000032FB68DA63FB79002B08D0BB68F86804
:1010200019460A2200F0A6FA0346FB7527E0F86885
:10103000B9680A2200F02CFA0346FB751FE0BB6872
:10104000124A934219D8FB68DB6B43F40032FB6809
:10105000DA63FB79002B08D0BB68F86819461922BF
:1010600000F088FA0346FB7509E0F868B9681922B0
:1010700000F00EFA0346FB7501E00123FB75FB7DD2
:1010800018461837BD4680BDA0860100801A0600AC
:1010900080B582B000AF78607B68D3F8083103F088
:1010A000E063002B11D100BF7868FFF729FF0346EA
:1010B000802BF9D078684FF40051FFF731FF7B683F
:1010C0004FF4C062C3F8802004E07B684FF4C06234
:1010D000C3F880210837BD4680BD00BF80B582B00F
:1010E00000AF78600B46FB707B68D3F8083103F0E3
:1010F000E063002B10D100BF7868FFF701FF0346C3
:10110000802BF9D078684FF40051FFF709FFFA7887
:101110007B68C3F8802003E0FA787B68C3F88021FD
:101120000837BD4680BD00BF80B582B000AF786093
:101130007B68D3F8083103F0E063002B11D100BFC6
:101140007868FFF7DDFE0346802BF9D078684FF40E
:101150000051FFF7E5FE7B684FF40072C3F8802072
:1011600004E07B684FF40072C3F880210837BD4665
:1011700080BD00BF80B582B000AF78607B68D3F8D7
:10118000083103F0E063002B11D100BF7868FFF74E
:10119000B7FE0346802BF9D078684FF40051FFF773
:1011A000BFFE7B684FF44072C3F8802004E07B6888
:1011B0004FF44072C3F880210837BD4680BD00BFA0
:1011C00080B485B000AF78607B68D3F80C3103F051
:1011D000E063002B03D17B685B6DFB7303E07B68EE
:1011E000D3F81C31FB73FB7B18461437BD465DF802
:1011F000047B704780B483B000AF786039607B684F
:101200001A6C3B6803F4FE331A437B681A647B68EC
:10121000DA6B3968044B0B401A437B68DA630C378E
:10122000BD465DF8047B70470000FC4180B483B08C
:1012300000AF786039607B681A6C3B6803F4FE335A
:10124000DB431A407B681A647B68DA6B3968054BAC
:101250000B40DB431A407B68DA630C37BD465DF810
:10126000047B70470000FC4180B483B000AF78601D
:101270007B689B6BDBB223F07F03DBB218460C3735
:10128000BD465DF8047B704780B483B000AF7860E2
:1012900039607B683A68DA640C37BD465DF8047BD8
:1012A000704700BF80B586B000AFF860B9601346E4
:1012B000FB7110237B61F86800F09EF8BB681B7A15
:1012C000002B02D0BB681B7A7B61FB79002B14D00A
:1012D000BB681B79002B09D0BB681B681A467B6969
:1012E000F86811461A4600F045F906E0BB681B682D
:1012F000F86819467A6900F0CBF8BB68DB79013BE6
:101300005A007B695B0801331B02134343F44033EB
:1013100043F00103FA68D363BB685B79013B1B06AA
:1013200043F48172FB685A63BB689B79002B09D038
:10133000FB685A6BBB689B79013B1B041A43FB6833
:101340005A6308E0FB685A6BBB685B79013B1B047E
:101350001A43FB685A63FB684FF4A0629A63FB6808
:101360004FF0FF32DA64BB685B891A46FB681A6487
:101370001837BD4680BD00BF80B582B000AF786031
:101380000B467B807B68D3F8083103F0E063002BC9
:1013900010D100BF7868FFF767FF0346802BF9D0B4
:1013A00078684FF40051FFF76FFF7A887B68C3F8C5
:1013B000802003E07A887B68C3F880210837BD4627
:1013C00080BD00BF80B485B000AF78607B68D3F883
:1013D0000C3103F0E063002B03D17B685B6DFB8174
:1013E00003E07B68D3F81C31FB81FB891846143776
:1013F000BD465DF8047B704780B582B000AF786071
:101400007B681A4A934203D07B68194A934203D1FE
:10141000184800F0F1F916E07B68174A934203D0B0
:101420007B68164A934203D1154800F0E5F90AE0BB
:101430007B68144A934203D07B68134A934202D1DB
:10144000124800F0D9F97B680322DA6000BF7B689C
:10145000DB6803F00103002BF9D07B681B6C23F0E1
:101460000F027B681A640837BD4680BD0000034048
:101470000002034008000340000002480002024846
:101480000800024800400248004202480840024862
:1014900080B58EB000AFF860B9607A60BB68632B2E
:1014A0005AD97B68002B57D0FFF728F902462F4BFB
:1014B000A3FB02235B093B62BB682C4AA2FB03230C
:1014C0005B09BB604FF48063FB620123BB6240F2A7
:1014D000FF337B624FF480633B6322E03B6A3A6BED
:1014E00002FB03F2BB68796801FB03F3B2FBF3F381
:1014F000FB61FB699B0ABB61FB69C3F309037B6169
:10150000BB69B3F5806F09D87A697B6A9A4205D2C4
:101510007B697B62BB69BB623B6BFB623B6B013BE4
:101520003B633B6B002BD9D1FB6A013B43F4004288
:10153000FB681A61FB685A690D4B13407A68013ADF
:1015400092021A43BB6A013B1B041A43FB685A61AF
:10155000002387F8373002E0012387F8373097F807
:10156000373018463837BD4680BD00BF1F85EB5168
:10157000EF8000FC80B58CB000AFF860B9607A6095
:10158000FFF7BCF803463B62BB687A6802FB03F3D3
:10159000FB610123FB623A6AFB699A425FDD3A6AAA
:1015A000FB6992FBF3F3BB6210E0FB6A0133FB6261
:1015B000BB687A6802FB03F31A46FB6A03FB02F37B
:1015C000FB613A6AFB6992FBF3F3BB62BB6A40F2D0
:1015D000FE329342E9D83A6A7B68B96A01FB03F3A9
:1015E000F96A01FB03F3B2FBF3F3BB613A6ABB6A2E
:1015F0000133796801FB03F3F96A01FB03F3B2FBE2
:10160000F3F37B61BA687B69D31A83EAE372A2EBD6
:10161000E372B968BB69CB1A002BB8BF5B429A4230
:1016200002DABB6A0133BB62BB6AC3F58063BB628B
:10163000BB6A43F48042FB681A61FB685A690C4B31
:1016400013407A68013A92021A43FB6A013B1B0479
:101650001A43FB685A61002387F8273002E0012310
:1016600087F8273097F8273018463037BD4680BDB9
:10167000EF8000FC80B485B000AFF860B9603B60DB
:101680001346FB71FB68D3F8083123F0E062FB6876
:10169000C3F80821FB68D3F80821094B13403A68C6
:1016A0001102BA681143FA7912060A431A43FB6819
:1016B000C3F808211437BD465DF8047B704700BFAE
:1016C000C0C0FFF880B485B000AFF860B9603B607F
:1016D0001346FB71FB68D3F80C3123F0E062FB6822
:1016E000C3F80C21FB68D3F80C210A4B13403A686D
:1016F0001102BA681143FA7912060A43134343F000
:101700008052FB68C3F80C211437BD465DF8047B9A
:10171000704700BFC0C0FFEF80B485B000AFF86075
:101720000B467A60FB72FB68D3F80C3123F47C52D1
:101730007B681B021A43FB68C3F80C211437BD46B3
:101740005DF8047B704700BF80B485B000AFF860DF
:101750000B467A60FB72FB689A69FB7A072101FAF3
:1017600003F3DB431A40FB7A796801FA03F31A4367
:10177000FB689A611437BD465DF8047B704700BF73
:1017800080B485B000AFF8600B467A60FB72FB68EE
:10179000D3F80821FB7A072101FA03F3DB431A404F
:1017A000FB7A796801FA03F31A43FB68C3F808214E
:1017B0001437BD465DF8047B704700BF80B485B028
:1017C00000AFF8600B467A60FB72FB68D3F80C211F
:1017D000FB7A072101FA03F3DB431A40FB7A7968AD
:1017E00001FA03F31A43FB68C3F80C211437BD4612
:1017F0005DF8047B704700BF80B582B000AF7860B1
:101800007B68284A934218D14FF40060FFF7AAF88A
:1018100000BF4FF40060FFF7C1F80346002BF8D17A
:101820004FF40060FEF72AFF00BF4FF40060FEF7A0
:1018300041FF0346002BF8D130E07B681A4A9342FF
:1018400014D11A48FFF78EF800BF1848FFF7A6F822
:101850000346002BF9D11548FEF710FF00BF1348CF
:10186000FEF728FF0346002BF9D117E07B68104AEA
:10187000934213D10F48FFF775F800BF0D48FFF7EB
:101880008DF80346002BF9D10A48FEF7F7FE00BF9A
:101890000848FEF70FFF0346002BF9D10837BD4675
:1018A00080BD00BF0800034008000248800000100F
:1018B000084002480001001080B400AFBD465DF84A
:1018C000047B704780B483B000AF786039607B6878
:1018D0001A6C3B68DB431A407B681A640C37BD46C0
:1018E0005DF8047B704700BF80B483B000AF7860C0
:1018F0007B689B6BDBB223F07F03DBB218460C37AF
:10190000BD465DF8047B704780B483B000AF78605B
:1019100039607B68D3F808213B68DB431A407B6859
:10192000C3F808210C37BD465DF8047B704700BF43
:1019300080B483B000AF78607B68D3F8143103F4CF
:101940008053002B14BF01230023DBB218460C3751
:10195000BD465DF8047B704780B483B000AF78600B
:101960007B68D3F8143103F40063002B14BF012308
:101970000023DBB218460C37BD465DF8047B704788
:1019800080B483B000AF786039607B68D3F80C21F5
:101990003B68DB431A407B68C3F80C210C37BD461B
:1019A0005DF8047B704700BF80B483B000AF7860FF
:1019B0007B68D3F8143103F00803002B14BF012314
:1019C0000023DBB218460C37BD465DF8047B704738
:1019D00080B584B000AF78600023FB737B685B68E0
:1019E0005B6898470346FB73FB7B18461037BD4680
:1019F00080BD00BF80B584B000AF78607B689B6815
:101A0000FB60FB68DA68FB689B689A4240D27B689F
:101A10005B6893F82B30002B27D01AE0FB68DA685C
:101A2000FB689B689A4212D27B681968FB681A6847
:101A3000FB68DB6813441B789BB208461946FFF726
:101A40009BFCFB68DB685A1CFB68DA6001E000BFA6
:101A500053E07B681B681846FFF76AFF034683F074
:101A60000103DBB2002BD9D147E07B681968FB6822
:101A70001A68FB68DB6813441B789BB2084619465A
:101A8000FFF77AFCFB68DB685A1CFB68DA6034E01D
:101A90007B681B681846FFF75FFF0346002B2CD0BE
:101AA0007B685B6893F82B30002B07D07B681B6842
:101AB00018464FF08041FFF727FF06E07B681B6860
:101AC00018464FF40051FFF7FDFE00BF7B681B680E
:101AD0001846FFF709FF0346802BF7D0FB6800226A
:101AE0001A76FB6800221A607B685B689B68002B93
:101AF00003D07B685B689B6898471037BD4680BD04
:101B000090B585B000AF78607B689B68FB607B68B0
:101B10005B6893F82C30002B4ED032E0FB685A699A
:101B2000FB681B699A4211D2FB685A68FB685B69C3
:101B3000D4187B681B681846FFF744FC0346DBB2E9
:101B40002370FB685B695A1CFB685A61FB685A6921
:101B5000FB681B699A4214D1FB6800225A767B68A5
:101B60001B6818464FF0C041FFF70AFF7B685B68AF
:101B7000DB68002B04D07B685B68DB6898470BE070
:101B80000AE07B681B681846FFF70EFF034683F0E8
:101B90000103DBB2002BC1D1FB685A69FB681B69EA
:101BA0009A423AD2FB681A69FB685B69D31A786873
:101BB000194600F035F830E0FB685A69FB681B698C
:101BC0009A4211D2FB685A68FB685B69D4187B683B
:101BD0001B681846FFF7F6FB0346DBB22370FB6871
:101BE0005B695A1CFB685A61FB685A69FB681B6990
:101BF0009A4212D1FB6800225A767B681B6818460D
:101C00004FF44041FFF75EFE7B685B68DB68002BAA
:101C100003D07B685B68DB6898471437BD4690BD8E
:101C200080B584B000AF786039600023FB607B68CA
:101C30005B6893F82C301A4601239340BB603A68E6
:101C4000BB689A4203D23B68013BFB6002E0BB6881
:101C5000013BFB607B681A687B685B6893F82C30FB
:101C600010461946FA68FFF757FD1037BD4680BD8C
:101C700080B400AF044BDB6803F4E0631B0A184632
:101C8000BD465DF8047B704700ED00E080B483B092
:101C900000AF0346FB7197F90730002B0BDB0849B7
:101CA00097F907305B09FA7902F01F02012000FA68
:101CB00002F241F823200C37BD465DF8047B7047E3
:101CC00000E100E080B483B000AF03463960FB71EF
:101CD00097F90730002B0ADB0D4997F907303A686E
:101CE000D2B29200D2B20B4483F800230AE0094931
:101CF000FB7903F00F03043B3A68D2B29200D2B2F0
:101D00000B441A760C37BD465DF8047B704700BF64
:101D100000E100E000ED00E080B489B000AFF860C1
:101D2000B9607A60FB6803F00703FB61FB69C3F1EC
:101D30000703062B28BF0623BB61FB690633062B6E
:101D400002D9FB69013B00E000237B61BB690122F2
:101D500002FA03F35A1EBB681A407B699A407B69FA
:101D6000012101FA03F3591E7B680B401343184607
:101D70002437BD465DF8047B704700BF80B483B054
:101D800000AF78600B46FB701346BB70F878FB78A9
:101D90007A6806339B0013445B6823F00702BB7824
:101DA0001A437968831D9B000B445A600C37BD466B
:101DB0005DF8047B704700BF80B582B000AF7860EB
:101DC0003960786839680122FFF76CFA0837BD4638
:101DD00080BD00BF80B483B000AF78607B681B6CAF
:101DE00023F00F0343F002027B681A640C37BD46F0
:101DF0005DF8047B704700BF80B582B000AF002360
:101E0000FB712D4804212D4AFEF7C2FA2C482D49BA
:101E1000FFF7D2FF2A4800210122FFF7AFFF284831
:101E2000102104220123FFF725FC2548002104226C
:101E30000023FFF747FC2248FFF7CCFF1E4805218F
:101E4000214AFEF7A5FA1E4810210022FFF77CFC6C
:101E50001B4810210322FFF793FC1948102105228B
:101E6000FFF7ACFC164813210522FFF7A7FCFFF78C
:101E7000FFFE034618463F210022FFF74DFF0346B1
:101E800057201946FFF71EFF5720FFF7FFFEFFF709
:101E9000EFFE034618463F210022FFF73DFF0346B1
:101EA00059201946FFF70EFF5920FFF7EFFEFB7987
:101EB00018460837BD4680BD00810248E437000857
:101EC00000000340903700089C37000880B500AF41
:101ED0000148FFF78FFD80BD0088FE1F80B500AF71
:101EE0000148FFF70DFE80BD0088FE1F80B400AFE3
:101EF000044BDB6803F4E0631B0A1846BD465DF83B
:101F0000047B704700ED00E080B483B000AF03466F
:101F10003960FB7197F90730002B0ADB0D4997F9FF
:101F200007303A68D2B29200D2B20B4483F8002351
:101F30000AE00949FB7903F00F03043B3A68D2B287
:101F40009200D2B20B441A760C37BD465DF8047B82
:101F5000704700BF00E100E000ED00E080B489B010
:101F600000AFF860B9607A60FB6803F00703FB61BB
:101F7000FB69C3F10703062B28BF0623BB61FB697E
:101F80000633062B02D9FB69013B00E000237B618D
:101F9000BB69012202FA03F35A1EBB681A407B692F
:101FA0009A407B69012101FA03F3591E7B680B40BB
:101FB000134318462437BD465DF8047B704700BFC5
:101FC00080B582B000AF78607B68013BB3F1807F61
:101FD00001D301230FE00A4A7B68013B53604FF0B5
:101FE000FF303F21FFF790FF054B00229A60044B22
:101FF00007221A60002318460837BD4680BD00BF7F
:1020000010E000E090B486B000AF78600023FB736E
:102010006B497A681346DB0013449B000B4418336A
:102020001B68BB60674B1B68002B09D17A6813469D
:10203000DB0013449B00624A1344624A1360BBE016
:10204000604B1B687B61BB683B61ABE07B699B6954
:102050001A463B699B1A3B613B69002B7ADC7B6922
:102060005B68002B26D07B6959687A681346DB00D1
:1020700013449B00524A13440B607B6959685048D3
:102080007A681346DB0013449B00034459604C49B3
:102090007A681346DB0013449B000B447A691A608C
:1020A0007A681346DB0013449B00454A1A447B6957
:1020B0005A601CE0434B196841487A681346DB00BC
:1020C00013449B00034419603E4B19687A68134619
:1020D000DB0013449B003A4A13444B607A68134672
:1020E000DB0013449B00364A1344364A13603449DC
:1020F0007A681346DB0013449B000B441B689A6903
:102100003B69D1182E487A681346DB0013449B00C4
:102110000344183319602A497A681346DB001344D4
:102120009B000B44196826487A681346DB00134469
:102130009B0003441B689869214C7A681346DB00B6
:1021400013449B00234418331B68C31A8B6101237B
:10215000FB7324E03B69002B21DD7B691B68002BAE
:102160001DD117497A681346DB0013449B000B44CA
:102170007A695A607A681346DB0013449B00104A60
:102180001A447B691A6039690D487A681346DB0086
:1021900013449B000344183319600123FB737B69CC
:1021A0001B687B617B69002B06D0FB7B83F00103FE
:1021B000DBB2002B7FF44AAF1837BD4690BC7047A6
:1021C0007C88FE1F6088FE1F80B485B000AF7860F9
:1021D0007A681346DB0013449B00294A1344FB60D2
:1021E000FB685B68002B07D1FB681B68002B03D1E1
:1021F000244B00221A603DE0FB685B68002B14D181
:10220000FB681B681F4A13601E4B1B6800225A6044
:102210001C4B1B681B4A12689169FA6892690A4450
:102220009A61FB6800221A6024E0FB681B68002B9F
:1022300007D1FB685B6800221A60FB6800225A60C5
:1022400018E0FB685B68FA6812681A60FB681B6834
:10225000FA6852685A60FB681B68FA6812689169EC
:10226000FA6892690A449A61FB6800221A60FB6866
:1022700000225A601437BD465DF8047B704700BFEA
:102280007C88FE1F6088FE1F80B582B000AF2F4B98
:102290001B687B6050E07B6893F82030002B13D0E4
:1022A0007B685B691846FFF78FFF7B6800225A73D3
:1022B0007B685B691A4601239340DA43244B1B6811
:1022C0001340234A136034E07B681B7B002B12D140
:1022D0007B685B7B012B2CD17B685B691846FFF721
:1022E00073FF7B6802225A737B689B687A68126965
:1022F000104698471DE07B681B7B012B18D17B683B
:102300005B7B012B15D17B685B691846FFF75CFF8F
:102310007B68DA697B689A617B685B691846FFF7BE
:1023200071FE7B689B687A6812691046984700E0E6
:1023300009E0064B1B687B607B68002B03D07B6841
:102340009B69002BA7D00837BD4680BD6088FE1F63
:102350006488FE1F80B582B000AF0E4B1B687B60A7
:102360000D4B1B6801330C4A13607B68002B0ED0A9
:102370007B689B69012B05D97B689B695A1E7B682A
:102380009A6104E07B6800229A61FFF77DFF0837BD
:10239000BD4680BD6088FE1F6888FE1F80B584B082
:1023A00000AF78600023FB737B681B7883F0010328
:1023B000DBB2002B20D0134B00221A601248FFF72B
:1023C000FFFD0346FB73FB7B012B15D0FFF78EFD52
:1023D000034618463F210022FFF7C0FD03464FF099
:1023E000FF301946FFF790FD084B00221A607B680A
:1023F00001221A700023FB73FB7B18461037BD4681
:1024000080BD00BF6088FE1F803202006488FE1F0E
:1024100080B489B000AFF8607A603B600B46FB7215
:102420000023FB610023BB6100237B61FB68B3F5E4
:102430007A7F02D20023FB617BE00023BB6175E061
:10244000BB6901229A403E4B1B681340002B6AD1A6
:10245000BB6901229A403A4B1B681343384A136008
:102460003849BA691346DB0013449B000B44103310
:10247000BA695A603349BA691346DB0013449B00BA
:102480000B440833FA7A1A712E49BA691346DB00F5
:1024900013449B000B44083302225A71FB682A4AFA
:1024A000A2FB03239B097B617B69591C2548BA6900
:1024B0001346DB0013449B00034418331960214981
:1024C000BA691346DB0013449B000B4418337A6946
:1024D0005A601C49BA691346DB0013449B000B4445
:1024E00008337A681A601749BA691346DB00134447
:1024F0009B000B4410333A681A601249BA691346BC
:10250000DB0013449B000B4400225A600D49BA695A
:102510001346DB0013449B000B4400221A60BB6986
:102520000133FB6105E0BB690133BB61BB69072B6C
:1025300086D9FB6918462437BD465DF8047B704791
:102540006488FE1F7C88FE1FD34D621080B483B068
:1025500000AF0346FB7197F90730002B0CDB0949EC
:1025600097F907305B09FA7902F01F02012000FA9F
:1025700002F2603341F823200C37BD465DF8047B3E
:10258000704700BF00E100E080B483B000AF786026
:1025900039607B681A6C3B68DB431A407B681A64BD
:1025A0000C37BD465DF8047B704700BF80B483B034
:1025B00000AF78607B689B6BDBB223F07F03DBB2FC
:1025C00018460C37BD465DF8047B704780B483B075
:1025D00000AF786039607B68D3F808213B681A4304
:1025E0007B68C3F808210C37BD465DF8047B704753
:1025F00080B483B000AF786039607B68D3F808217D
:102600003B68DB431A407B68C3F808210C37BD46A2
:102610005DF8047B704700BF80B483B000AF786082
:102620007B684FF40042C3F818210C37BD465DF8B3
:10263000047B704780B483B000AF78607B68D3F8C8
:10264000143103F48053002B14BF01230023DBB2A9
:1026500018460C37BD465DF8047B704780B483B0E4
:1026600000AF78607B68D3F8143103F40063002B6B
:1026700014BF01230023DBB218460C37BD465DF8BA
:10268000047B704780B483B000AF786039607B68AA
:10269000D3F80C213B68DB431A407B68C3F80C215C
:1026A0000C37BD465DF8047B704700BF80B483B033
:1026B00000AF78607B68D3F8143103F00803002B77
:1026C00014BF01230023DBB218460C37BD465DF86A
:1026D000047B704780B483B000AF78607B689B6CEC
:1026E00018460C37BD465DF8047B704780B483B054
:1026F00000AF786039607B68DA6C3B681A437B68AE
:10270000DA640C37BD465DF8047B704780B584B051
:1027100000AFF860B9607A60FB681A68BB68DBB22A
:10272000104619467A68FEF7F7FF1037BD4680BDA0
:1027300080B582B000AF78607B681B681846FFF7F1
:1027400079FF034618460837BD4680BD80B582B084
:1027500000AF78607B681B681846FFF7A7FF034649
:1027600018460837BD4680BD80B582B000AF78609E
:102770007B681B681846FEF723FD0346184608379A
:10278000BD4680BD80B582B000AF78600B46FB705F
:102790007B681A68FB7810461946FEF79FFC0837DD
:1027A000BD4680BD80B582B000AF786039607B687F
:1027B0001B6818463968FEF739FD0837BD4680BDED
:1027C00080B582B000AF78607B681B681846FEF762
:1027D000ABFC0837BD4680BD80B582B000AF7860E5
:1027E0007B681B681846FEF7C5FC0837BD4680BDF0
:1027F00080B582B000AF78607B681B6818461021F6
:10280000FFF774FF7B681B681846FEF741FC08372A
:10281000BD4680BD80B485B000AF786039607A680D
:102820003B689A4202D27B68FB6001E03B68FB6038
:10283000FB6818461437BD465DF8047B704700BF3F
:1028400080B584B000AF78607B68002B06D07B68D1
:102850005B685B6898470023FB7301E00123FB730F
:10286000FB7B18461037BD4680BD00BF80B584B0E5
:1028700000AF786039607B681B681846FFF72AFF55
:10288000F860FA683B68134018461037BD4680BDB3
:1028900080B582B000AF786039607B681B681846ED
:1028A0003968FFF723FF0837BD4680BD80B584B087
:1028B00000AF78607B689B68BB600023FB7378681F
:1028C0004FF4B171FFF7D2FF0346002B11D07B68A4
:1028D0001B6818464FF08041FFF78AFE7B681B6833
:1028E00018464FF40051FFF74FFE786800F0F6FAF3
:1028F00005E1BB689B69002B40F082807B685B68C8
:1029000093F82630002B5AD0BB68DA68BB689B6806
:102910009A422ED278684FF08041FFF743FF7B68E0
:102920001B6818464FF08041FFF750FE17E0BB6868
:10293000DA68BB689B689A420FD2BB681A68BB68AA
:10294000DB6813441B7878681946FFF71BFFBB68E8
:10295000DB685A1CBB68DA6001E000BFCFE0786832
:10296000FFF7E6FE034683F00103DBB2002BDED166
:10297000C5E07B681B6818464FF08041FFF738FEC2
:102980007B685B6893F828305BB21846FFF7DEFD82
:1029900000BF7B681B681846FFF760FE034683F0A4
:1029A0000103DBB2002BF4D1BB6893F82830DBB213
:1029B000002B00F0A480786800F0A4F89FE0BB68CA
:1029C000DA68BB689B689A420FD2BB681A68BB681A
:1029D000DB6813441B7878681946FFF7D3FEBB68A1
:1029E000DB685A1CBB68DA6089E0BB6893F8283062
:1029F000DBB2002B00F08380786800F083F87EE083
:102A00007B685B6893F82630002B54D07B685B684A
:102A100093F82730002B15D07B685B6893F826303D
:102A20001A46012303FA02F27B685B6893F82730A9
:102A3000194601238B4010461946FFF7EBFE03466B
:102A4000FB7301E00223FB737B681B6818464FF0A1
:102A50008041FFF7CDFD23E0BB68DA68BB689B6867
:102A60009A421CD2BB68DB685A1CBB689B689A42BE
:102A700007D1BB681B6A012B03D17868FFF7ACFE56
:102A800002E07868FFF79CFEBB68DB685A1CBB68F5
:102A9000DA60BB68DA68FB7B9A4201D30AE009E09E
:102AA0007868FFF745FE034683F00103DBB2002B95
:102AB000D2D117E016E0BB68DB685A1CBB689B6884
:102AC0009A4207D1BB681B6A012B03D17868FFF7D4
:102AD00083FE02E07868FFF773FEBB68DB685A1C70
:102AE000BB68DA607B689B68DA687B689B689B6878
:102AF0009A4204D178684FF08041FFF753FE1037B7
:102B0000BD4680BD80B584B000AF78607B689B68AF
:102B1000FB6078684FF08041FFF744FEFB68DB699B
:102B2000012B06D1FB68002283F828207868FFF784
:102B30005FFE00BF7B681B681846FFF737FD034642
:102B4000802BF7D0FB68002283F826207B685B6827
:102B50001B69002B03D07B685B681B6998471037A3
:102B6000BD4680BD80B582B000AF78607B689B6851
:102B7000002283F826207B689B6800221A607B680D
:102B80009B68002283F828207B685B6893F82630D6
:102B9000002B0BD07B681B6818464FF08041FFF775
:102BA00027FD7B681B681846FFF736FD78684FF0F5
:102BB0008041FFF7F7FD0837BD4680BD90B585B071
:102BC00000AF78607B689B68BB600023FB73BB68C9
:102BD00093F82730DBB2002B00F011817B685B6833
:102BE00093F82730002B00F0C78020E0BB685A68BC
:102BF000BB685B69D4187868FFF7B6FD034623709D
:102C0000BB685B695A1CBB685A61BB685A69BB6880
:102C10001B699A420BD1BB68002283F827207B688E
:102C20001B6818464FF0C041FFF72CFD08E078689C
:102C3000FFF78CFD034683F00103DBB2002BD5D1F7
:102C4000BB685A69BB681B699A4277D2BB681A692C
:102C5000BB685B69D31A7868194600F083F97B6812
:102C60005B6893F82630002B15D07B685B6893F87F
:102C700026301A46012303FA02F27B685B6893F858
:102C80002730194601238B4010461946FFF7C2FD35
:102C90000346BB7301E00223BB737B685B6893F858
:102CA0002630002B33D027E0BB68DA68BB689B680E
:102CB0009A4220D2BB68DB685A1CBB689B689A4268
:102CC00007D1BB681B6A012B03D17868FFF784FD2D
:102CD00002E07868FFF774FDBB68DB685A1CBB68CC
:102CE000DA60FB7B0133FB73FA7BBB7B9A4203D335
:102CF0000023FB730AE009E07868FFF719FD03463B
:102D000083F00103DBB2002BCED117E016E0BB68E5
:102D1000DB685A1CBB689B689A4207D1BB681B6A78
:102D2000012B03D17868FFF757FD02E07868FFF7C1
:102D300047FDBB68DB685A1CBB68DA60BB685A6930
:102D4000BB681B699A425AD17B681B6818464FF0D2
:102D5000C041FFF797FC7B681B6818464FF4404161
:102D6000FFF712FCBB6893F82830DBB2002B46D08B
:102D7000786800F047F842E0BB685A68BB685B6956
:102D8000D4187868FFF7F0FC03462370BB685B69D2
:102D90005A1CBB685A61BB685A69BB681B699A4276
:102DA0001DD2BB68DA68BB689B689A4227D2BB68B1
:102DB000DA68BB689B68013B9A4207D1BB681B6A13
:102DC000012B03D17868FFF707FD02E07868FFF771
:102DD000F7FCBB68DB685A1CBB68DA600FE07B68F5
:102DE0001B6818464FF44041FFF7CEFBBB6893F8D1
:102DF0002830DBB2002B02D0786800F003F81437DB
:102E0000BD4690BD80B584B000AF78607B689B689C
:102E1000FB60FB68DB69012B0FD100BF7B681B687F
:102E20001846FFF7C3FB0346802BF7D0FB68002250
:102E300083F828207868FFF7DBFC00BF7B681B68FD
:102E40001846FFF7B3FB0346802BF7D0FB68002240
:102E500083F82720FB68002283F826207B685B68C4
:102E60005B69002B03D07B685B685B699847103710
:102E7000BD4680BD80B582B000AF78607B689B683E
:102E8000002283F827207B689B68002283F8262095
:102E90007B689B6800225A607B689B68002283F8ED
:102EA00028207B685B6893F82730002B07D07B686D
:102EB0001B6818464FF0C041FFF7E4FB06E07B6853
:102EC0001B6818464FF44041FFF75EFB78684FF0EF
:102ED0008041FFF767FC0837BD4680BD80B584B0F0
:102EE00000AF78607B681B681846FFF7F3FBF8605B
:102EF0007B685B689B69002B0CD0FB6803F02003A8
:102F0000002B07D078682021FFF7C2FC7B685B6844
:102F10009B6998477B685B68DB69002B0CD0FB687A
:102F200003F04003002B07D078684021FFF7B0FC86
:102F30007B685B68DB6998477B685B681B6A002B72
:102F40000DD0FB6803F48173002B08D078684FF430
:102F50008071FFF79DFC7B685B681B6A98471037A0
:102F6000BD4680BD80B586B000AF786039607B68B3
:102F70005B6893F827301A4601239340BB757B6842
:102F80005B6893F82630002B08D07B685B6893F869
:102F900026301A4601239340FB7501E00123FB759F
:102FA000FA7DBB7D10461946FFF734FC386138685E
:102FB0003969FFF72FFC0346FB737B685B6893F866
:102FC00027301A46FB7B013B786811461A46FFF70B
:102FD0009DFB1837BD4680BD80B584B000AF7860DA
:102FE0000023FB737B685B6893F82430002B03D1CC
:102FF0007868FFF7B7FD07E07B685B6893F82430DB
:10300000012B01D00123FB737B681B687A6812686F
:10301000D26C42F00202DA647B681B6802229A6674
:10302000FB7B18461037BD4680BD00BF80B584B01D
:1030300000AF78600023FB737B685B6893F82530F2
:10304000002B03D17868FFF715FF07E07B685B680A
:1030500093F82530012B01D00123FB73FB7B18462D
:103060001037BD4680BD00BF80B400AF044BDB68A5
:1030700003F4E0631B0A1846BD465DF8047B704705
:1030800000ED00E080B483B000AF0346FB7197F918
:103090000730002B0BDB084997F907305B09FA79F9
:1030A00002F01F02012000FA02F241F823200C373F
:1030B000BD465DF8047B704700E100E080B483B05A
:1030C00000AF03463960FB7197F90730002B0ADB2C
:1030D0000D4997F907303A68D2B29200D2B20B4448
:1030E00083F800230AE00949FB7903F00F03043B4E
:1030F0003A68D2B29200D2B20B441A760C37BD466F
:103100005DF8047B704700BF00E100E000ED00E0E7
:1031100080B489B000AFF860B9607A60FB6803F0F2
:103120000703FB61FB69C3F10703062B28BF0623D6
:10313000BB61FB690633062B02D9FB69013B00E04A
:1031400000237B61BB69012202FA03F35A1EBB68AC
:103150001A407B699A407B69012101FA03F3591EE9
:103160007B680B40134318462437BD465DF8047B4B
:10317000704700BF80B483B000AF78600B46FB702F
:103180001346BB70F878FB787A6806339B001344CB
:103190005B6823F00702BB781A437968831D9B00A4
:1031A0000B445A600C37BD465DF8047B704700BF86
:1031B00080B483B000AF78600B46FB70F878FB7882
:1031C0007A6806339B0013445B6843F020027968F9
:1031D000831D9B000B445A600C37BD465DF8047B91
:1031E000704700BF80B483B000AF78600B46FB70BF
:1031F000F878FB787A6806339B0013445B6843F0E9
:1032000040027968831D9B000B445A600C37BD4611
:103210005DF8047B704700BF80B483B000AF786076
:1032200039607B68D3F808213B681A437B68C3F890
:1032300008210C37BD465DF8047B704780B483B02D
:1032400000AF786039607B68D3F80C213B681A4383
:103250007B68C3F80C210C37BD465DF8047B7047D2
:1032600080B483B000AF78600B46FB707B681B6C4A
:1032700023F00F02FB781A437B681A640C37BD46B3
:103280005DF8047B704700BF80B582B000AF786006
:103290003960786839680122FDF752FE0837BD466B
:1032A00080BD00BF80B582B000AF7860786804212F
:1032B000FFF7D6FF0837BD4680BD00BF80B500AF21
:1032C000054805210022FDF7DBFD03480B21002204
:1032D000FDF7D6FD80BD00BF0080024880B500AF7D
:1032E000D023064805211A46FDF7CAFDD02303481E
:1032F0000B211A46FDF7C4FD80BD00BF00800248C7
:1033000080B584B000AF4FF0B073FB600023BB60AA
:103310004FF0C0437B603D483D49FFF7B5FF3B4858
:1033200000210122FFF726FF384801210022FFF784
:1033300021FF36480021FFF73BFF34480021FFF70B
:1033400051FF32480121FFF733FF30480121FFF7D9
:1033500049FF2E48102104220123FEF78BF92B4848
:1033600010210122FEF70CFA2848B968FFF754FF34
:103370002648002104220F23FEF7A4F92348102138
:103380000022FEF71BFA214813210022FEF716FA4D
:103390001E487968FFF752FF1C4810210222FEF7F1
:1033A000D3F91A48F968FDF725FF1848FFF77AFFA7
:1033B00018480521184AFCF7EBFF16480B21174A5D
:1033C000FCF7E6FFFFF750FE034618463F210022B8
:1033D000FFF79EFE03465B201946FFF76FFE5B205A
:1033E000FFF750FEFFF740FE034618463F2100223C
:1033F000FFF78EFE03465A201946FFF75FFE5A205C
:10340000FFF740FE1037BD4680BD00BF00000248F8
:103410000838000800800248F0370008FC37000830
:1034200080B500AF0148FFF741FA80BD3888FE1F24
:1034300080B500AF0148FFF7C1FB80BD3888FE1F93
:1034400080B485B000AF78607B6803F00703FB6051
:103450000C4BDB68BB60BA684FF6FF031340BB60E0
:10346000FB681A02BB68134343F0BF6343F40033A5
:10347000BB60044ABB68D3601437BD465DF8047B6B
:10348000704700BF00ED00E080B582B000AF0120C2
:10349000FFF7D6FF72B6214B214A9A60BFF34F8FD8
:1034A00062B61E4A1D4BD3F8883043F47003C2F84D
:1034B00088301C4B03F5805314331B687B607B689A
:1034C00023F00F037B607B6843F004037B60154BA4
:1034D00003F5805314337A681A60104A0F4B5B6906
:1034E00023F0100353610D4A0C4B5B6923F0080372
:1034F00053610A4A094B5B6A23F480335362074ADB
:10350000064B5B6A23F400335362044A034B5B6A45
:1035100023F4802353620837BD4680BD00ED00E0F0
:10352000000000080010005880B485B000AF78603B
:103530000023FB737B6801221A70FB7B184614374B
:10354000BD465DF8047B704780B400AF024B18465F
:10355000BD465DF8047B7047001BB700B0B586B070
:1035600000AF134B3C1D1D460FCD0FC42B682360CD
:103570003B1D1846FDF706F80020FDF72BF900204B
:10358000FDF7E0F80420FDF7B1F9FDF72BFA012073
:103590002021FDF737FA0020FDF7E8F80120FDF7BC
:1035A000CDF90120FDF7B6F91837BD46B0BD00BF13
:1035B0003C38000880B582B000AF0023FB71114891
:1035C000FFF7B2FF0346FB71FB79002B04D10E48D5
:1035D000FFF736F90346FB71FB79002B04D10B484A
:1035E000FEF7DCFE0346FB71FB79002B04D1084893
:1035F000FEF7EEF90346FB71FB7918460837BD4626
:1036000080BD00BF7088FE1F3888FE1F6C88FE1FBB
:103610000088FE1F80B483B000AF786039607B689B
:10362000DA6C3B681A437B68DA640C37BD465DF898
:10363000047B704780B582B000AF78607B681B6800
:1036400018461021FFF7E6FF7B681B681846FDF758
:103650001FFD0837BD4680BD80B582B000AF7860E1
:10366000074B01221A700748FFF7B6FC0548FFF721
:10367000DDFC0448FFF7E4F80837BD4680BD00BF15
:103680007B88FE1F3888FE1F80B400AF034B0122E9
:103690001A70BD465DF8047B704700BF7888FE1F36
:1036A00080B400AF034B01221A70BD465DF8047B65
:1036B000704700BF7988FE1F80B500AF064B01221E
:1036C0001A700648FFF788FC0448FFF7B3FF034869
:1036D000FFF7B6F880BD00BF7A88FE1F3888FE1F4E
:1036E00080B400AF034B01221A70BD465DF8047B25
:1036F000704700BF7A88FE1F80B400AF034B0122E1
:103700001A70BD465DF8047B704700BF7A88FE1FC3
:1037100080B582B000AFFFF74DFF0346FB71FB7928
:10372000002B00D0FEE742F210700121034A002373
:10373000FEF76EFE0246024B1A60FEE7593600089D
:103740007488FE1F70B50E4B0E4CE41AA4100025B1
:103750001E46A54204D056F8253098470135F8E7B3
:10376000FEF7AAF8084C094BE41AA41000251E46DF
:10377000A54204D056F8253098470135F8E770BDCA
:103780004488FE1F4488FE1F4488FE1F4488FE1F95
:1037900000C20100000808011000000090000000B5
:1037A0000100000002000000008102480500000046
:1037B0009C37000890370008F91D00080000000041
:1037C00000000000000000000000000000000000F9
:1037D0000000000000000000A837000800000004FE
:1037E00004030000000000000100000002000000CF
:1037F000D00000000100000001000000D000000027
:103800000100000003000000801A06000000000014
:103810000838000801330008DD320008BD32000816
:1038200089360008A1360008B9360008E1360008DC
:10383000F9360008000004045B5A00003002010160
:103840000000010000000000000001000201010171
:1038500000000340B43700084488FE1F0000000049
:103860000000000000000000000000000000000058
:103870000000000000000000000000000000000048
:10388000010000000000000000000248103800089D
:043890000C88FE1F83
:0400000508000201EC
:00000001FF
